:020000040000FA
:040FF80000C00E0027
:020000040000FA
:040FFC0000E00F0002
:02000004000EEC
:10C0000000D30020E9C30E00F1C30E00F3C30E00FD
:10C01000F5C30E00F7C30E00F9C30E0000000000C8
:10C02000000000000000000000000000FBC30E0044
:10C03000FDC30E0000000000FFC30E0001C40E008F
:10C0400071DA0E0003C40E0061DD0E0003C40E00A1
:10C0500003C40E0003C40E0003C40E0003C40E008C
:10C0600003C40E0003C40E0003C40E0003C40E007C
:10C0700003C40E0003C40E0003C40E0003C40E006C
:10C080001DDF0E0003C40E0003C40E0003C40E0027
:10C0900003C40E0003C40E0003C40E0003C40E004C
:10C0A00003C40E0003C40E0003C40E0003C40E003C
:10C0B00003C40E0003C40E000000000000000000D6
:10C0C00003C40E0003C40E0003C40E0003C40E001C
:10C0D00081DA0E0003C40E0003C40E00B5DD0E00AD
:10C0E00003C40E0003C40E00D5C50E0000000000FE
:10C0F0000000000003C40E000000000003C40E0096
:10C10000000000000000000000000000000000002F
:10C11000000000000000000000000000000000001F
:10C12000000000000000000000000000000000000F
:10C1300000000000000000000000000000000000FF
:10C1400000000000000000000000000000000000EF
:10C1500000000000000000000000000000000000DF
:10C1600000000000000000000000000000000000CF
:10C1700000000000000000000000000000000000BF
:10C1800000000000000000000000000000000000AF
:10C19000000000000000000000000000000000009F
:10C1A000000000000000000000000000000000008F
:10C1B000000000000000000000000000000000007F
:10C1C000000000000000000000000000000000006F
:10C1D000000000000000000000000000000000005F
:10C1E000000000000000000000000000000000004F
:10C1F000000000000000000000000000000000003F
:10C20000DFF810D000F098F900480047F51D0F0046
:10C21000AFF3008000D3002080F308888E461047DB
:10C2200030B4044654E8000F0D4644E80053002B98
:10C23000F8D1156030BC704730B4044654E8000FA4
:10C2400040EA010544E80053002BF7D1156030BCEB
:10C25000704730B4044654E8000F00EA010544E892
:10C260000053002BF7D1156030BC704730B4044642
:10C2700054E8000F80EA010544E80053002BF7D191
:10C28000156030BC704730B4044654E8000F00EB32
:10C29000010544E80053002BF7D1156030BC70470E
:10C2A00030B4044654E8000FA0EB010544E8005305
:10C2B000002BF7D1156030BC704770B404464FF0C6
:10C2C000000054E8006F0D68AE4207BF44E8002349
:10C2D000012044E800630E60002B1CBF0020F0E743
:10C2E00070BC704730B4044654E8000F88422CBF3D
:10C2F000451A054644E80053002BF5D1156030BCC3
:10C300007047000030B4044654E8000F0D4644E87E
:10C310000053002BF8D1156030BC704730B4044690
:10C3200054E8000F40EA010544E80053002BF7D120
:10C33000156030BC704730B4044654E8000F00EA82
:10C34000010544E80053002BF7D1156030BC70475D
:10C3500030B4044654E8000F80EA010544E8005375
:10C36000002BF7D1156030BC704730B4044654E858
:10C37000000F00EB010544E80053002BF7D11560D6
:10C3800030BC704730B4044654E8000FA0EB010500
:10C3900044E80053002BF7D1156030BC704770B4EF
:10C3A00004464FF0000054E8006F0D68AE4207BF2E
:10C3B00044E80023012044E800630E60002B1CBF0A
:10C3C0000020F0E770BC704730B4044654E8000F1A
:10C3D00088422CBF451A054644E80053002BF5D18E
:10C3E000156030BC7047000006488047064800478B
:10C3F000FEE7FEE7FEE7FEE7FEE7FEE7FEE7FEE715
:10C40000FEE7FEE785DB0E0001C20E00202A04DBFA
:10C41000203A00FA02F1002070479140C2F1200357
:10C4200020FA03F31943904070470000004870471A
:10C4300094AC0F0010B5441A0346944209D28418F4
:10C44000114403E011F8013D04F8013D521EF9D2F8
:10C4500010BD40EA0104A40703D009E010C9121F6F
:10C4600010C3042AFAD203E011F8014B03F8014B80
:10C47000521EF9D210BDD2B201E000F8012B491EC4
:10C48000FBD270470022F6E710B513460A46044671
:10C490001946FFF7F0FF204610BD421C10F8011BA3
:10C4A0000029FBD1801A704730B5044600200346AE
:10C4B00000E05B1C934203D2E05CCD5C401BF8D0F3
:10C4C00030BD034611F8012B00F8012B002AF9D1E9
:10C4D000184670472DE9F05F0546002092469B46BE
:10C4E00088460646814640241BE02846414647468A
:10C4F000224600F033F853465A46C01A914110D3F1
:10C50000114618462246FFF781FF2D1A67EB0108F6
:10C510004F46224601200021FFF778FF17EB000964
:10C520004E41201EA4F10104DFDC484631462A4674
:10C530004346BDE8F09F0000064C074D06E0E0686A
:10C5400040F0010394E8070098471034AC42F6D35A
:10C55000FFF75AFEB8B90F00D8B90F00202A04DB44
:10C56000203A21FA02F00021704721FA02F3D0406C
:10C57000C2F12002914008431946704770B58C18EB
:10C5800010F8015B15F0070301D110F8013B2A11E7
:10C5900006D110F8012B03E010F8016B01F8016BD4
:10C5A0005B1EF9D12B0705D40023521E0DD401F8D0
:10C5B000013BFAE710F8013BCB1A921C03E013F899
:10C5C000015B01F8015B521EF9D5A142D8D30020CE
:10C5D00070BD0000054B4FF0FF321A6053F8042C79
:10C5E000034B1A601A68034B1A60704704BA025072
:10C5F000FC92002008BA025001EB820204388A4201
:10C6000001D10020704752F8043D1BBA40F8043FA6
:10C61000F5E70000354B8EB019461A680092009A73
:10C62000D207FAD5324B334A1A600A680192019A4E
:10C63000D007FAD5304A1A600A680292029AD207E5
:10C64000FAD52E4A1A600A680392039AD007FAD5DF
:10C650002B4A1A600A680492049AD207FAD5294A2A
:10C660001A600A680592059AD007FAD5264A1A6018
:10C670000A680692069AD207FAD5244A1A600A680E
:10C680000792079AD007FAD5214A1A600A680892D9
:10C69000089AD207FAD51F4A1A600A680992099ABD
:10C6A000D007FAD51C4A1A600A680A920A9AD20779
:10C6B000FAD51A4A1A6008680B900B98C007FAD589
:10C6C0001A600A680C920C9AD007FAD5144A1A60BC
:10C6D0000A680D920D9AD207FAD5124A1A600E21F5
:10C6E0000D230F2200200EB000F080BDB0B002502C
:10C6F00080B00250804301294063392180700129B4
:10C700008020542100D13490C0403490C030202982
:10C71000C0530D9000413890832308C880E3102156
:10C7200000413821CF4308C810B5504B96B01C4685
:10C730001A680192019AD207FAD54D4B4D4A1A60F8
:10C7400022680292029AD207FAD54B4A1A604B4AE3
:10C7500042EA804022680392039AD207FAD5186011
:10C7600022680492049AD007FAD5454A1A60A2F5C5
:10C77000800242EA814122680592059AD207FAD5E1
:10C78000196022680692069AD007FAD53D4A1A60C7
:10C7900022680792079AD107FAD53B4A1A602268A5
:10C7A0000892089AD207FAD5384A1A602268099284
:10C7B000099AD007FAD5364A1A6022680A920A9A6C
:10C7C000D107FAD5334A1A6022680B920B9AD20726
:10C7D000FAD5314A1A6022680C920C9AD007FAD521
:10C7E0002E4A1A6022680D920D9AD107FAD52C4A6A
:10C7F0001A6022680E920E9AD207FAD5294A1A6058
:10C8000022680F920F9AD007FAD5274A1A6021683A
:10C8100010911099C907FAD51A60144B1A46196875
:10C8200011911199C807FAD5114B20491960116867
:10C8300012911299C907FAD51D491960116813910F
:10C840001399CC07FAD50B49196011681491149902
:10C85000C807FAD517491960116815911599C907C4
:10C86000FAD5154A1A6016B010BD00BFB0B002501C
:10C8700080B002504004419000862929D81001C898
:10C880004014419040142129401465210034409007
:10C8900000310C90C0400C90C030202940960D9083
:10C8A00000416090031645C80086112100416021B7
:10C8B000594644C84014459040142D90F0B5454B5E
:10C8C00089B01D461C680194019CE407FAD5424BCF
:10C8D000DFF80CE1DFF80CC113449B0000241A6858
:10C8E0000B181E2B88BFC0F11E011F320B185209F6
:10C8F0005343B3F5806F82BF4FF48061B1FBF2F117
:10C90000091A00F1A05000F52C402746A14233DC63
:10C910002B680493049BDB07FAD5304B1B6829680E
:10C9200005910599CF07FAD52D4C2E492360002398
:10C930001E46934203F1010040D120F00102294834
:10C94000194600268A423CD8296806910699CE07E6
:10C95000FAD525490968286807900798C007FAD5CD
:10C960002160204800210C468B422DD11D4900201A
:10C970009A422CD809B0F0BD2B680293029BDB07CA
:10C98000FAD503199B001B682E680396039EF607D1
:10C99000FAD5CEF800300023934203F1010306D10B
:10C9A000164623F00103B34204D80134AEE7CCF8B5
:10C9B0000070F1E7CCF800700136F4E70E60034632
:10C9C000B7E706600131BDE704600131CCE70860DC
:10C9D0000133CDE7B4B0025024AC00147CB0025057
:10C9E000D4B00250D8B0025078B00250F0B5294D02
:10C9F00085B02C462E680096009EF607FAD500F109
:10CA0000A05000F52C408000056820680190019836
:10CA1000C707FAD52048214F056002EB8306B242D2
:10CA200029D15A1C1D4E22F0010200279A4227D814
:10CA300023680293029BDE07FAD5194B0B449B0037
:10CA40001B681F335B099A4213D221680391039933
:10CA5000C907FAD5154400219B1A104A05600846FB
:10CA60008B4210D85A1C0D4922F0010200209A4234
:10CA70000CD805B0F0BD52F804CBC7F800C0CEE723
:10CA800037600133D2E710600131E9E70860013314
:10CA9000EDE700BFB4B00250D4B00250D8B002509D
:10CAA00024AC001410B5494B94B019461A68009292
:10CAB000009AD207FAD5464B464A1A600A68019294
:10CAC000019AD407FAD5444A1A600A680292029A77
:10CAD000D007FAD5414818600A680392039AD20732
:10CAE000FAD53F4A1A600A680492049AD407FAD524
:10CAF0003C4A1A600A680592059AD207FAD53A4A62
:10CB00001A600A680692069AD407FAD5374A1A605C
:10CB10000A680792079AD207FAD5354A1A600A6856
:10CB20000892089AD407FAD5324A1A600A6809921C
:10CB3000099AD207FAD5304A1A600A680A920A9A04
:10CB4000D407FAD52D4A1A600A680B920B9AD207BD
:10CB5000FAD52B4A1A600A680C920C9AD407FAD5B7
:10CB6000284A1A600A680D920D9AD207FAD5264A09
:10CB70001A600A680E920E9AD407FAD5234A1A60F0
:10CB80000A680F920F9AD207FAD5214A1A600F4B02
:10CB900019461C681094109CE407FAD50C4B1860D9
:10CBA000086811901198C407FAD51A600A681292A1
:10CBB000129AD007FAD5174A1A600A681392139A84
:10CBC000D207FAD5144A1A6014B010BDB0B00250A2
:10CBD00080B00250809065210004099040966590D5
:10CBE00080806121802008218020649000816190F4
:10CBF000004610210081112100414421802020297C
:10CC0000024610C800860921802060214021282981
:10CC10004096652140962529594614C810B5544BB5
:10CC200098B019461A680192019AD207FAD5514B69
:10CC3000514A1A600A680292029AD407FAD54F4AFA
:10CC40001A600A680392039AD007FAD54C48186014
:10CC50000A680492049AD207FAD54A4A1A600A6806
:10CC60000592059AD407FAD5474A1A600A680692CF
:10CC7000069AD207FAD5454A1A600A680792079AB7
:10CC8000D407FAD5424A1A600A680892089AD2076D
:10CC9000FAD5404A1A600A680992099AD407FAD567
:10CCA0003D4A1A600A680A920A9AD207FAD53B4AA4
:10CCB0001A600A680B920B9AD407FAD5384A1A60A0
:10CCC0000A680C920C9AD207FAD5364A1A600A689A
:10CCD0000D920D9AD407FAD5334A1A600A680E925B
:10CCE0000E9AD207FAD5314A1A600A680F920F9A43
:10CCF000D407FAD52E4A1A600A681092109AD20701
:10CD0000FAD52C4A1A601A4B19461C681194119CCA
:10CD1000E407FAD5174B1860086812901298C407F8
:10CD2000FAD51A600A681392139AD007FAD5124AF4
:10CD30001A600A681492149AD207FAD51E4A1A6029
:10CD40000A681592159AD407FAD51C4A1A600A681F
:10CD50001692169AD007FAD5194A1A600A681792DD
:10CD6000179AD207FAD5174A1A6018B010BD00BF3B
:10CD7000B0B0025080B002500093652100043190A1
:10CD8000409665900083612100C3302100C3649008
:10CD90000081619000461021008111210041442151
:10CDA00000C320290C4610C80086312100C3602131
:10CDB00040C12829409665210013319040962529CD
:10CDC000594614C8400432492DE9F041814B1D6891
:10CDD00098682033A0B01E461A680192019AD707BE
:10CDE000FAD57D4B7D4A1A6032680292029AD407C6
:10CDF000FAD57B4A1A607B4A14461168039103995D
:10CE0000C907FAD5784A1168C1F3402137680497F9
:10CE1000049FFF07FAD5754F1F6027680597059F88
:10CE2000FF07FAD51768002900F0CF80B90540F157
:10CE3000CC80316806910699CF07FAD56C49196004
:10CE4000216807910799C907FAD51168C1F34021F4
:10CE500037680897089FFF07FAD5664F1F60276855
:10CE60000997099FFF07FAD51268002900F0AF80E3
:10CE7000910540F1AC8032680A920A9AD207FAD53D
:10CE8000564A1A6032680B920B9AD707FAD55A4A5B
:10CE90001A6031680C910C99CC07FAD55749196082
:10CEA00031680D910D99C907FAD555491960316856
:10CEB0000E910E99CF07FAD55249196031680F913A
:10CEC0000F99CC07FAD550491960504B1E46196886
:10CED00010911099C907FAD53F4C4D4B2360336828
:10CEE0001193119BDB07FAD54A4B236033681293E9
:10CEF000129BDF07FAD5484B23603A4B98461968D6
:10CF000013911399C907FAD5324F386033681493D7
:10CF1000149BDB07FAD5226033681593159BD8075D
:10CF2000FAD53E4B236033681693169BD907FAD582
:10CF30003B4B236033681793179BDA07FAD5394BBD
:10CF4000236033681893189BDB07FAD5364B2360B0
:10CF500033681993199BD807FAD5344B236033688B
:10CF60001A931A9BD907FAD5314B236033681B9368
:10CF70001B9BDA07FAD52F4B236000F0D1F908BBD1
:10CF8000D8F800301C931C9BDB07F9D53D60336853
:10CF90001D931D9BD907FAD5274B236033681E9339
:10CFA0001E9BDA07FAD5254B2360D8F800301F9373
:10CFB0001F9BDB07F9D50C4B1B6813F4805F204BDC
:10CFC00008BF184620B0BDE8F0811E48FAE71E48A9
:10CFD000F8E700BF90B0025080B00250001002513C
:10CFE000C01F7229B4B0025088B00250C0CF0129CE
:10CFF000C01F0E29C03F002940010249003184A80A
:10D0000000001649400108A180440888B0B00250D1
:10D01000C044708880077A41C0077E4100006A4999
:10D020008006164940006E4900020021008220213E
:10D03000408220218082242140A161A100C8615149
:10D040000308F1000108F1000208F10008B540B141
:10D05000202801464FF0070228BF20210020FFF7BB
:10D060002DFC024B00221A6008BD00BF1CB8025004
:10D07000F0B51D6885B001F01F040DB91F2C25D136
:10D08000154D2E462F680197019FFF07FAD500F135
:10D09000A05000F52C408000006835680395039D82
:10D0A000ED07FAD50D4D00EB611028600C480068C3
:10D0B00002901F2C18BFC94302980FBF106001F0E7
:10D0C0001F0100FA01F1116000211960106843008E
:10D0D000C00F136005B0F0BDB4B00250E4B0025010
:10D0E000DCB0025030B51E4B85B01A46196800916D
:10D0F0000099CC07FAD500F1A05000F52C40800033
:10D10000016813680193019BD807FAD5154B164C9B
:10D110001868164D1F30202390FBF3F001380028CB
:10D1200010DA00230130400153B1A0F120014FF08B
:10D130000042134204D1013888424FEA5202F8D12A
:10D1400005B030BD13680393039BDB07FAD5431882
:10D1500023602B680293029B002BE3D10138DEE7AA
:10D16000B4B00250ACB00250E4B00250DCB0025097
:10D170000A460021AFF3008038B5A0F12003B3F5D3
:10D18000426F05462CD88F2826D800F1470300F1BE
:10D190006604DB064FEA541400D0013464013F34C6
:10D1A000A409013411B1A1421AD30C46E3004FF493
:10D1B0008050B0FBF3F0202828BF202002B110607F
:10D1C000084B01221A60214600F068F828462146E3
:10D1D00000F088F8002038BD00F11F046409DDE785
:10D1E0000148F8E71CB802502221F00070B526482B
:10D1F00088B0054604680094009CE607FAD52348E9
:10D20000234C0460234C44EA83432C680194019C22
:10D21000E407FAD50360930143EA824242F01044E6
:10D2200044F4C0442B680293029BDE07FAD50460E5
:10D230002B680393039BDB07FAD5174B03608B0125
:10D2400043EA814141F0104343F4C0432E68049601
:10D25000049EF607FAD503602B680593059BDE074D
:10D26000FAD5046041F058412B680693069BDC0711
:10D27000FAD5016042F058422B680793079BDB0701
:10D28000FAD5026008B070BDB0B0025080B0025054
:10D29000C02102298071009880611890002230B569
:10D2A00049001346023840F6FC7502F1A05404F51B
:10D2B0002C44A400904202F10102CABF2360256001
:10D2C0005B181E2AF1D1044A13600B445360034BD0
:10D2D000034A1A6030BD00BF78B0025084B00250DB
:10D2E00020F80F000C4B18603F3020F03F00890100
:10D2F000403058609960D9601961596199611C3357
:10D300000648196082B002680192019AD207FAD5E4
:10D31000196002B0704700BF90B00250B4B0025024
:10D320002DE9F041012392B0CDE90333624B1D4654
:10D330001A680592059AD207FAD5604C604B2360B3
:10D34000604B19461A680692069AD707FAD55E4BC3
:10D350001A68D60400F1A8802A680792079AD007B5
:10D36000FAD55A4A22600A680892089AD207FAD572
:10D370001E68C6F30036002E40F098801220FFF79A
:10D38000B1FE07461320FFF7ADFE87428CBF122087
:10D390001320FFF7A7FE471EFFF73CF903AB01AAD6
:10D3A00039461220FFF764FE04AB804602AA3946D4
:10D3B0001320FFF75DFE00EB4800022832D003285F
:10D3C0003ED0012874D12B680993099BDB07FAD55D
:10D3D0003F4B23602B680A930A9BD807FAD53D4B35
:10D3E00023602B680F930F9BD907FAD53A4B236024
:10D3F0002B681093109BDA07FAD5384B23602B6803
:10D400001193119BDB07FAD5354B2360013F25D5DE
:10D410001023192218210020FFF7E8FE304612B031
:10D42000BDE8F0812B680B930B9BD907FAD52D4BE8
:10D4300023602B680C930C9BDA07FAD52A4BCFE7B5
:10D440002B680D930D9BDB07FAD5284B23602B68C7
:10D450000E930E9BD807FAD5254BC1E703AB01AA63
:10D4600039461220FFF704FE04AB044602AA3946EF
:10D470001320FFF7FDFD10EB440402D1FFF7CEFBB4
:10D48000C4E7FFF70FFB022C08D0032C09D0012CB6
:10D4900010D117211620FFF747F9B7E715211420FF
:10D4A000F9E70F210E20F6E7124EB7E7124EB5E767
:10D4B000124EB3E7124EB1E7B0B0025080B0025046
:10D4C00000084A51B4B0025088B0025000084E51D2
:10D4D00000065A4940065E49000442410014424990
:10D4E00040042E49000652494006564900063A4972
:10D4F00040063E490608F1000708F1000408F10063
:10D500000508F100014B1860704700BF08BA0250CF
:10D51000014B1860704700BF04BA0250094BC24368
:10D520001A60043B82B01B680193074B019A0242C8
:10D5300004D0064A1060186802B0704720BF1A680D
:10D540000192F3E704BA0250FC92002008BA02509C
:10D55000FEF770BFFEF798BF0A460021FEF794BFA2
:10D560002DE9F74305460E469946114600F060FA4C
:10D570000446002840F08480002E00F085800029B9
:10D5800000F08480B9F1200F40F0828005F144045E
:10D59000082205F104082046FFF72EF805F12407BC
:10D5A000082231464046FFF727F806F120010822FD
:10D5B0003846FFF721F802A94FF4807041F8049D26
:10D5C000FFF7D6FD002865D1334A4FF4807313600E
:10D5D000012193600823314AFFF708FA0121084628
:10D5E00005232F4AFFF702FA0823424601211C2097
:10D5F000FFF7FCF908233A4601210320FFF7F6F96B
:10D600002246082301210220FFF7F0F90823254ACA
:10D6100001211A20FFF7EAF90523234A01211B20E3
:10D62000FFF7E4F90823214A01211420FFF7DEF96E
:10D6300008231F4A01211520FFF7D8F9082305F117
:10D64000640201211620FFF7D1F9082305F18402B5
:10D6500001211720FFF7CAF90823164A01210B20E0
:10D66000FFF7C4F9FFF7B0FB04460198FFF7EEFCA3
:10D67000114B002C18BF1C46A4212846FFF76CFF55
:10D68000204603B0BDE8F0830C4CF9E70C4CF7E7FB
:10D690000C4CF5E7084CEFE790B002502CB90F00A6
:10D6A000A4B90F00ECB80F0090B90F0050B90F00EB
:10D6B00070B90F000CB90F008408F0007608F00074
:10D6C0008008F0008108F00038B50D460446B0B17E
:10D6D000A02200210430FFF73DFF95B10822294622
:10D6E00004F16400FEF788FF082205F1200104F12F
:10D6F0008400FEF781FF044B2360002038BD0348FF
:10D70000FCE70348FAE700BFDD55AABB7108F0004B
:10D710008308F0002DE9F041069F044615461E4699
:10D72000FFF7D2FF38B93B46324629462046BDE8CE
:10D73000F041FFF715BFBDE8F08100002DE9FF4182
:10D74000144B04460E460FCB6F4687E80F00204669
:10D7500000F07EF98046B0B9CEB1636A251D01950F
:10D760003BB901236362226F04F13001384600F0B7
:10D7700087F82B46043E243453F8042B12BAA342F4
:10D7800046F8042FF8D1404604B0BDE8F081DFF838
:10D790000880F8E7BCB80F000502F00038B5044671
:10D7A00068B1051D70212846FFF7D6FE28462022C5
:10D7B0000449FFF7CDFE044B2360002038BD034829
:10D7C000FCE700BFCCB80F00DD55AABB0002F0009B
:10D7D0002DE9F043284B04460E4615460FCB85B085
:10D7E0006F4687E80F002DB94FF00009484605B095
:10D7F000BDE8F083204600F02BF981460028F5D1E2
:10D80000231D0193636AA3BB236F8BB1C3F140084F
:10D81000A84528BFA84604F13000314618444246C6
:10D82000FFF796FE236F434446442367A5EB0805A4
:10D83000226F402A06D104F13001384600F020F86A
:10D840000023236705F03F0835F03F0505D031463A
:10D850002A46384600F014F82E44B8F1000FC3D021
:10D860004246314604F13000FFF772FEC4F8708082
:10D87000BCE7DFF80890B9E7BCB80F000C02F00075
:10D880002DE9F74F314B44688046924699461A6815
:10D89000002AFCD12E4B9B461A68002AFCD14FF07F
:10D8A000FF300191FFF72EFE8020FFF731FE294D5A
:10D8B000294A2A4F2A4E012307202B60A2F59E7287
:10D8C000C2F83C011360636A3B60A36A3360D8F816
:10D8D000003042F8043CD8F80830204698470199B7
:10D8E000D9F80030002BFBD1BAF1000F20D11D4B2D
:10D8F00004221A60D9F80030002BFBD1DBF800A01D
:10D90000BAF1000FFAD1D8F80C30204698473B689E
:10D9100063623368A362144BC3F800A0C3F844A148
:10D92000D9F80030002BFBD12B6003B0BDE8F08F9D
:10D93000236A012B04BF0C4A13600C4B4020196072
:10D94000C3F804A0FFF7EAFDD4E700BF10B9025006
:10D9500020BC025018B8025000B90250CCB7025097
:10D96000D0B70250C8B7025084B6025028BC02504B
:10D97000084B1B681B0EF02B08D1074B1A68074B8E
:10D980009A4205D1064B0020186070470520704769
:10D990000620704728B9025024BA02500000E02047
:10D9A0000CBA02500C4B1B68C3610C4B1B688361A3
:10D9B0000B4B1B6843610B4B1B6803610A4B1B68D5
:10D9C000C3600A4B1B688360094B1B684360094BAB
:10D9D0001B680360704700BF5CB6025058B6025027
:10D9E00054B6025050B602504CB6025048B60250DF
:10D9F00044B6025040B602500C4BC2691A608269AC
:10DA000043F8042C426943F8082C026943F80C2CB3
:10DA1000C26843F8102C826843F8142C426843F81B
:10DA2000182C026843F81C2C704700BF5CB60250EB
:10DA300030B10268034B04489A4208BF0020704787
:10DA400002487047DD55AABB8208F0007108F0005B
:10DA500030B10268034B04489A4208BF0020704767
:10DA600002487047DD55AABB0202F0000002F00038
:10DA700010B508F08FFABDE8104008F0F9B90000C1
:10DA80002DE9F0411E4E4FF48271D6F8040130B1F9
:10DA90001C48C268521CC260304607F009FF0025CE
:10DAA0004FF4A07707EB85018AB23046B25812B323
:10DAB00089B207F0FDFE1348103000EB0514204634
:10DAC0000BF0B2FF104811492246401AC008042149
:10DAD00001EB00400EA107F0A9FC616819B12046D6
:10DAE0000BF0F8FE07E0A16811B120460BF0F2FE42
:10DAF000206800B180476D1C022DD3D3BDE8F081B2
:10DB0000004002401400002078BA0F00F8B90F005E
:10DB100074696D65725F6669726520283078257852
:10DB20002900000000F00ABA70B50E46144900EB57
:10DB3000400001EBC0051446E86A183520B1012801
:10DB40000FD0022805D113E0284600F02DFAA0429C
:10DB500001D2002411E022463146284600F071FA35
:10DB60000BE0284600F020FAA042F4D20446F2E787
:10DB70003146284600F038FA0446204670BD0000C1
:10DB80004469002030B54FF0805000228300D0F867
:10DB90003011C3F80C21C3F81021624B1A60624B9C
:10DBA0001B68624C2360604B1B1D1B68241D236097
:10DBB0005D4B08331B68241D23605B4B0C331B68D3
:10DBC000241D2360584B10331B68241D2360564BC3
:10DBD00014331B68241D2360534B18331B68534CAC
:10DBE00020342360504B1C331B68241D23604E4B94
:10DBF00020331B68241D23604B4B24331B68241DDA
:10DC00002360494B28331B68241D2360464B2C336B
:10DC10001B68241D2360444B30331B68434C403445
:10DC20002360414B34331B68241D23603E4B383343
:10DC30001B68241D23603C4B3C331B68241D236060
:10DC4000394B40331B68241D23600123082902D16E
:10DC5000D0F8344114B1082904D006E0354C3449D9
:10DC6000216005E0D0F8344114B1082904D006E061
:10DC7000314CFB21216005E0D0F8344114B1082972
:10DC800008D00EE090F858422C48016864F3030174
:10DC9000016002E0D0F834411CB929494FF400700A
:10DCA000086028480168C90702D06FF001010160CF
:10DCB0002548016841F470010160BFF34F8FBFF345
:10DCC0006F8F4FF01021D1F80002002803DBD1F84C
:10DCD0000402002822DA1D4C23601D480368002B33
:10DCE000FCD01223C1F800320568002DFCD0C1F829
:10DCF000043201680029FCD0226001680029FCD0B0
:10DD0000BFF34F8F10487C380168124A01F4E0617C
:10DD100011430160BFF34F8F00BFFDE70F490E486D
:10DD2000086030BD380500400404001020C50040E4
:10DD3000488103008C56004018F50040E40E004076
:10DD4000409602400004004088ED00E004E50140F8
:10DD500000E401400400FA050090D0039001002087
:10DD600010B5054C206818B904A1512001F0B2FF8C
:10DD70002068BDE8104000479C0000202E2E5C2E3D
:10DD80002E5C2E2E5C2E2E5C2E2E5C6D6F64756CC0
:10DD900065735C6E7266785C647269766572735CDA
:10DDA0007372635C7072735C6E7266785F707273AC
:10DDB0002E6300002DE9F05F5448D0F8045300248E
:10DDC0002E464FF0010913E096FAA6F0B0FA80F75C
:10DDD000B80000F58070804607F03CFF28B140464F
:10DDE00007F040FF09FA07F0044309FA07F08643F9
:10DDF000002EE9D108F0D3FD002869D0444AD0783C
:10DE0000F0BBA00264D5434940F2A978C1F8008074
:10DE1000081D036813F0FF0C02D0036803EA0C0C22
:10DE200040F2AA7AC1F800A0036813F0FF0301D002
:10DE30000668334040F2AB7BC1F800B0066816F0CC
:10DE4000FF0601D007683E4040F2AC770F600768DC
:10DE500017EA0C0709D0D2F810C04CEA070CC2F838
:10DE600010C0C1F800800760076840F2AD770F600E
:10DE700007681F4009D0136943EA0743136100E0B4
:10DE800026E0C1F800A00760036840F2AE730B60A3
:10DE9000036833400BD0DE0701D044F40004DE06F3
:10DEA00001D544F00104C1F800B0036000681069B6
:10DEB00030F0011102D005F080710C4310F0011F09
:10DEC00006D0690504D520F0011044F48064106187
:10DED000C4F3C05624F400044F46DFF83C8009E048
:10DEE00094FAA4F0B0FA80F558F82500804707FAB4
:10DEF00005F08443002CF3D10CF0DAF8002E03D0A7
:10DF0000BDE8F05F03F0BCBBBDE8F09F00700240CD
:10DF1000A4000020007802404CA80F00064808B575
:10DF2000002101600068009007F03EFB07F014F943
:10DF30000028FBD108BD00000001014010B5124CC3
:10DF400002202061606111A0A06104F17800E0610D
:10DF50004FF4805020620020A06260620BA1A16497
:10DF6000E0620D49E1641021A065C4E91410E06588
:10DF70000AA1E01DFEF7A5FA09A12046FEF7A1FAC5
:10DF80002020A07110BD0000446900205465726D0E
:10DF9000696E616C00000000BC790020525454008E
:10DFA00053454747455200000269C1688A4203D879
:10DFB0008068401A104400E0501A401E704700006C
:10DFC000C11700EBD161074B4A1153F8222021F011
:10DFD0001F01411A01208840024201D001207047F0
:10DFE0000020704700E100E02DE9F047C4681746C3
:10DFF000894606464FF000083069A04201D9051B4A
:10E0000002E0B168201A0D1AB0686D1E001BA8420C
:10E0100000D80546BD4200D33D4670682A462044DC
:10E020004946FEF707FAB0687F1B2C44A844A94470
:10E03000A04200D10024F460002FDDD14046BDE8AD
:10E04000F0872DE9F04104468846D4E90207C51B54
:10E05000E168606816460844B54206D94146FEF7B5
:10E06000E9F9B819E060BDE8F0812A464146FEF7BB
:10E07000E1F9761B08EB050132466068FEF7DAF934
:10E08000E660F0E70FB47CB50C0009AD01D0611E6D
:10E0900000E00021CDE90001064B6A4629460898B8
:10E0A00000F01AF8002C02D0009A002111707CBCFC
:10E0B0005DF814FB2FE50E0002E008C8121F08C12E
:10E0C000002AFAD170477047002001E001C1121FF9
:10E0D000002AFBD1704700002DE9FF4F8DB00F469D
:10E0E0000546002606E025280BD0DDE90F129047F3
:10E0F0006D1C761C28780028F5D111B03046BDE89B
:10E10000F08F0024A246A1460122E94900E0044321
:10E1100015F8013F203B02FA03F00842F7D12878B6
:10E120002A2810D06FF02F022878A0F13001092999
:10E1300014D80AEB8A0102EB410144F0020400EB1F
:10E14000010A6D1CF0E701CF5FEA000A03D544F431
:10E150000054CAF1000A44F002046D1C28782E28ED
:10E1600017D115F8010F44F004042A280ED06FF0DF
:10E170002F022878A0F1300109290AD809EB89017A
:10E1800002EB410100EB01096D1CF2E757F8049B1B
:10E190006D1C28786C280FD006DC4C2817D0682816
:10E1A0000DD06A2814D104E0742810D07A280FD139
:10E1B0000DE044F400140AE044F4801401E044F457
:10E1C00040146978814202D104F580146D1C6D1CE5
:10E1D00028786E281ED00CDC632830D004DC0028A0
:10E1E0008BD0582811D19FE0642867D069280CD1C2
:10E1F00064E073282DD004DC6F2872D0702804D11D
:10E2000094E075286ED078286DD0DDE90F12904724
:10E21000761C4BE1C4F30250022806D0032809D033
:10E22000042801CF09D0066040E101CFF117C0E911
:10E2300000613BE101CF068038E1067036E117F856
:10E24000040B8DF8000000208DF80100EB46012042
:10E2500003E057F804BB4FF0FF3061074FF00001B7
:10E2600002D40DE008F10101884649450FDA8045E6
:10E27000F8DB1BF808100029F4D108E008F10101CF
:10E2800088468142FADB1BF808100029F6D1DDE947
:10E290000F23AAEB08008146214600F031F93044F3
:10E2A00000EB080604E0DDE90F121BF8010B9047B4
:10E2B000B8F10108F7D221464846F2E00A21C4F33A
:10E2C00002524FF0000B0891022A04D001CFC1176F
:10E2D000032A09D00AE0FF1D27F00707F7E802012B
:10E2E00008E02CE01EE01FE000B2C117042A01D1B3
:10E2F00040B2C117021E71F1000206DA0023D0EB12
:10E30000030063EB01012D2202E0220504D52B223C
:10E310008DF82420012203E0E20701D02022F7E754
:10E32000904653E00A210BE0102109E010214FF044
:10E33000000B44F004044FF00809089103E00821A1
:10E340004FF0000B0891C4F30252022A04D001CF0F
:10E350000021032A06D006E0FF1D27F00707F7E893
:10E36000020103E080B2042A00D1C0B24FF00008DD
:10E3700022072BD52A78702A07D0DDF820C08CF030
:10E38000100C5CEA0B0C05D00EE040228DF8242026
:10E39000012208E050EA010306D030238DF8243032
:10E3A0008DF8252002229046089B83F0080353EA4B
:10E3B0000B030BD150EA010201D1620706D53022CE
:10E3C0008DF824204FF00108A9F101092A78582A74
:10E3D00004D038A20B9208AA0A920BE03AA2F9E7FD
:10E3E0005B46089AFEF776F80B9B9B5C0A9A521ED6
:10E3F0000A92137050EA0102F2D10A98ADEB0000C4
:10E4000000F1200B600702D524F4803401E04FF0C6
:10E410000109D94502DDA9EB0B0000E0002000EB6B
:10E420000B0141440890AAEB010AE00306D4DDE9A0
:10E430000F232146504600F063F806444FF00009D0
:10E4400008E009A911F80900DDE90F12904709F168
:10E450000109761CC145F4DBE0030CD5DDE90F238F
:10E460002146504600F04CF8064404E0DDE90F1266
:10E4700030209047761C0899481E08900029F5DC4A
:10E4800008E00A980A990078491C0A91DDE90F1200
:10E490009047761CBBF10001ABF1010BF1DC21468A
:10E4A0005046DDE90F2300F019F806446D1C21E603
:10E4B000092801003031323334353637383961625A
:10E4C000636465660000000030313233343536371E
:10E4D0003839414243444546000000002DE9F041EF
:10E4E000044600251E461746880404D405E0394634
:10E4F0002020B0476D1C641EF9D52846BDE8F08188
:10E500002DE9F041044600251E469046C80301D57A
:10E51000302700E02027880404D505E0414638462E
:10E52000B0476D1C641EF9D52846BDE8F0814A68E5
:10E53000002A06D00A68531C0B6010704868401E01
:10E5400048607047800701D0002070470120704765
:10E5500040680068401E084201D101207047002039
:10E560007047C3688B4206D811440069491E814236
:10E5700001D8012070470020704700002DE9F05FAE
:10E58000DFF89CB05C46DBF84890DBF8246004F0D0
:10E59000E1FB216B4718751A22482349401AC1082C
:10E5A000042000EB0140804620A106F03BFF216BD8
:10E5B0004944B94200D1002508232A46384603F0D1
:10E5C000C7F90700184817494FF0010AA1EB0000EE
:10E5D0004FEAD0010AEB014404D020461AA106F00C
:10E5E00021FF19E004F0B6FB0022314602F0F0FBF7
:10E5F000DBF828200546D946AA4208D1404619A191
:10E6000006F010FFC9E9075AC9F8186004E020466F
:10E610002B461A4906F011FF3846BDE8F09F00006E
:10E62000C81C002078BA0F00F8B90F00456E746559
:10E6300072206E72665F6466755F6170705F636F93
:10E640006E74696E756500004661696C656420745E
:10E650006F20636F7079206669726D776172652EC5
:10E660000000000053657474696E6720617070204B
:10E6700061732076616C69640000000034AD0F00A6
:10E6800008B51346024600930648074BC01AC00857
:10E69000012303EB00400B4604A106F0D6FE09F06F
:10E6A0004DF9000078BA0F00F8B90F0052656365A4
:10E6B000697665642061206661756C7421206964E7
:10E6C0003A203078253038782C2070633A20307822
:10E6D000253038782C20696E666F3A2030782530E6
:10E6E00038780000024606480649401AC008012151
:10E6F00001EB004004A106F099FE09F01FF90000AB
:10E7000078BA0F00F8B90F005265636569766564E1
:10E7100020616E206572726F723A20307825303831
:10E72000782100002DE9F04107461E4E1E481F4982
:10E73000326A401AC508012A04D0032000EB0540C4
:10E740001BA12BE04FF44050184B174C4168E31AC3
:10E75000234A0220DB0800EB0344914206D1C102A8
:10E760003B462048726B01F073FB90B104F0F2FA63
:10E7700001461C483B464130B26901F069FB58B183
:10E78000042000EB054018A106F04CFE0120BDE876
:10E79000F081204618A101E0204626A106F042FEA5
:10E7A0000020F4E7C81C002078BA0F00F8B90F0069
:10E7B000426F6F742076616C69646174696F6E205A
:10E7C0006661696C65642E204E6F2076616C6964A9
:10E7D0002061707020746F20626F6F742E000000D3
:10E7E000DBE5B151281F002041707020697320764D
:10E7F000616C696400000000426F6F742076616C88
:10E8000069646174696F6E206661696C65642E204D
:10E81000536F66744465766963652069732070720E
:10E820006573656E742062757420696E76616C69BB
:10E83000642E0000426F6F742076616C69646174AD
:10E84000696F6E206661696C65642E20417070206E
:10E85000697320696E76616C69642E002DE9F0475A
:10E86000244C8146924660880E4681423FD84FF63E
:10E87000FF77002001F0C0F922786078A1888842F3
:10E8800001DA401C00E00020C0B2904203D1002019
:10E8900001F0E0F929E065784FF0000860788842DF
:10E8A00001DA401C00E000206070002001F0D2F985
:10E8B000BD421AD0A068B9F1000F40F835A00DD0C4
:10E8C00066B16188E068324605FB01004946FDF704
:10E8D000B1FDA06800EBC500868003E000EBC50039
:10E8E000A0F804800020BDE8F0870420FBE70920A1
:10E8F000F9E70000B800002010B50E4C03E0401C02
:10E9000000E00020207020786178814210D02278C9
:10E910006188E068A36802FB010003EBC20153F8C1
:10E920003220898890472078A1888842E9DAE6E792
:10E9300010BD0000B800002030B5CB0008339DB2F8
:10E9400093074FF0000401D0072030BD044B9A60BC
:10E950002A44DA605C701C7058809980002030BDB9
:10E96000B800002070B505460648446807E029460F
:10E97000204602F0B5F9204600F0B2FA0446002C19
:10E98000F5D170BDC800002070B50A4845680EE09A
:10E990002E7A002405E02146284600F0DDFE641CA6
:10E9A000E4B2B442F7D3284600F09AFA0546002DA7
:10E9B000EED170BDC80000202DE9F0410E4840F2B4
:10E9C0006A77456814E02E7A00240BE00022214685
:10E9D000284600F023FF18B108A1384601F07AF963
:10E9E000641CE4B2B442F1D3284600F079FA05463B
:10E9F000002DE8D1BDE8F081C80000202E2E5C2E4D
:10EA00002E5C2E2E5C2E2E5C2E2E5C636F6D706F36
:10EA10006E656E74735C6C69627261726965735C59
:10EA2000757362645C6170705F757362642E6300FD
:10EA300070B506460948062544680AE03146204676
:10EA400002F04EF90546062805D1204600F048FAA6
:10EA50000446002CF2D1284670BD0000C8000020FA
:10EA60002DE9FC4115460E00074604D1294940F224
:10EA7000D63001F02FF9384601F092FC0446007DB3
:10EA8000C0070DD0002001F0B7F8A06950B1206A8E
:10EA9000D8B31124002001F0DDF82046BDE8FC8148
:10EAA0000820FBE7E06EA8420DD32A463046A16E4F
:10EAB000FDF7C0FCE06E401BE066A06E6567284471
:10EAC000A0660024E6E7C4E90665384602F0FBF9D3
:10EAD000054611480069CDE90004E26E6AB1A16EF5
:10EAE000A069FDF7A7FCE169E06E091AE161A1697F
:10EAF0000144A16120670020E0666946284600F0D5
:10EB000037FC0400C6D19224C4E7FFE7C4E90865D6
:10EB1000F9E7000050B20F003CA90F00FEB5154602
:10EB20000E46044601F03CFC007D10F0010F0CD0B5
:10EB3000204602F0BFF9A90609D000210096CDE9D0
:10EB40000151694600F05EFCFEBD0820FEBD014992
:10EB5000896AF3E73CA90F00F8B5040004D138A195
:10EB600040F26A5001F0B6F8606820B934A140F272
:10EB70006B5001F0AFF86068006820B930A140F236
:10EB80006C5001F0A7F82068006820B12CA140F279
:10EB90006D5001F09FF808F097F810B908F09EF852
:10EBA00020B927A140F2715001F094F800250FE040
:10EBB000002705E0007800F0EFFB08B11120F8BD58
:10EBC0003946781CC7B2304600F0BEF80028F1D1B3
:10EBD0002946681CC5B2204600F01AF90600E7D1A4
:10EBE00000250DE0002703E00078214600F0DAFB65
:10EBF0003946781CC7B2304600F0A6F80028F3D199
:10EC00002946681CC5B2204600F002F90600E9D189
:10EC1000184D40F2975607E0A04203D108A13046B4
:10EC200001F058F82868056828680028F4D11248CF
:10EC30002C60694680690090204602F051F8F8BDCA
:10EC40002E2E5C2E2E5C2E2E5C2E2E5C2E2E5C63C9
:10EC50006F6D706F6E656E74735C6C6962726172F9
:10EC60006965735C757362645C6170705F75736213
:10EC7000642E6300CC000020E8A80F002DE9F04FBF
:10EC800087B04FF000081D46934689460446DDF8DC
:10EC900040A04646CDF80C8000E0761C6068012359
:10ECA00000224768214603A8B8470028F5D140460E
:10ECB0008DF800800027B84601903BE06068012392
:10ECC0006A46D0F804C0214601A8E04760680123E5
:10ECD00005AAD0F804C0214601A8E0479DF8141009
:10ECE00049451AD1D84514D19DF80000CAF8000052
:10ECF00005F8010B6A1C85F8009060689DF80030EB
:10ED00002146456801A89B1EA847002007B0BDE822
:10ED1000F08F08F1010000F0FF0860689DF80030F6
:10ED20000022D0F804C0214601A89B1EE0479DF8B0
:10ED300000000744B742C1D30520E7E70148406817
:10ED400070470000C800002070B50D46040004D1D3
:10ED500006A140F2431000F0BDFF6078A84201D840
:10ED6000002070BDA0782044284470BD2E2E5C2E5B
:10ED70002E5C2E2E5C2E2E5C2E2E5C636F6D706FC3
:10ED80006E656E74735C6C69627261726965735CE6
:10ED9000757362645C6170705F757362645F636CED
:10EDA0006173735F626173652E68000070B50D4614
:10EDB000040004D106A140F2431000F08BFF6078FC
:10EDC000A84201D8002070BDA0782044284470BD1E
:10EDD0002E2E5C2E2E5C2E2E5C2E2E5C2E2E5C6338
:10EDE0006F6D706F6E656E74735C6C696272617268
:10EDF0006965735C757362645C6170705F75736282
:10EE0000645F636C6173735F626173652E68000099
:10EE100070B50D46040004D107A14FF4887000F0CE
:10EE200059FF207AA84201D8002070BD05EB4500AB
:10EE30000934204470BD00002E2E5C2E2E5C2E2E38
:10EE40005C2E2E5C2E2E5C636F6D706F6E656E7423
:10EE5000735C6C69627261726965735C757362641C
:10EE60005C6170705F757362645F636C6173735F24
:10EE7000626173652E68000070B50D46040004D110
:10EE800007A14FF4887000F025FF207AA84201D82E
:10EE9000002070BD05EB45000934204470BD000022
:10EEA0002E2E5C2E2E5C2E2E5C2E2E5C2E2E5C6367
:10EEB0006F6D706F6E656E74735C6C696272617297
:10EEC0006965735C757362645C6170705F757362B1
:10EED000645F636C6173735F626173652E680000C9
:10EEE00010B5040004D1044940F2432000F0F2FEC2
:10EEF0002068006810BD0000C8F60E0010B50400C0
:10EF000004D104A140F2432000F0E4FE2068006830
:10EF100010BD00002E2E5C2E2E5C2E2E5C2E2E5C44
:10EF20002E2E5C636F6D706F6E656E74735C6C69B2
:10EF3000627261726965735C757362645C61707042
:10EF40005F757362642E680002484078002800D024
:10EF500001207047C800002010B5002000F0F4F92F
:10EF6000BDE81040802000F0EFB910B5002000F09F
:10EF7000EDF9BDE81040802000F0E8B92DE9F0413E
:10EF80004C4E0D4602460978062430780B2934D0C1
:10EF900009DC4FF0010707296DD2DFE801F06C0DA5
:10EFA0000F116C2951000C292FD00D2936D00E29B4
:10EFB0003DD085295FD115E0032016E000245AE0FA
:10EFC0003C48001D02F0E3FF28B13B480760BFF357
:10EFD0006F8FBFF34F8F30780028EFD137A140F209
:10EFE00037400FE0032846D104200AF013FF42E027
:10EFF000104600F09DF804463DE00028DED02FA129
:10F0000040F24B4000F066FED8E7012804D02BA167
:10F0100040F2514000F05EFE002005E036480068F6
:10F0200010F0010F0AD002200AF0F4FEC6E7022811
:10F0300004D222A140F2654000F04CFE0120F3E72B
:10F04000E878032817D0A87830B1802804D01BA115
:10F0500040F2734000F03EFE1649E87808310A6835
:10F0600032B100230B6049689047040006D000E0ED
:10F070000E2407F08DFE2046BDE8F0810AF020FE48
:10F0800028B1A8780028F6D107F045FEF3E74FF045
:10F090008050D0F83011082904D1D0F8340108B1DB
:10F0A000012000E0002090F0010FE4D107F030FED5
:10F0B000E1E70000EC0000205C7002402E2E5C2E88
:10F0C0002E5C2E2E5C2E2E5C2E2E5C636F6D706F70
:10F0D0006E656E74735C6C69627261726965735C93
:10F0E000757362645C6170705F757362645F636F97
:10F0F00072652E630000000038040040024A014699
:10F10000D2E9000210470000D026002070B50C465E
:10F11000054607F0F7FDA84201D0102070BD034856
:10F12000D4E90012C0E90212002070BDEC000020FA
:10F130007FB5054605208DF8000006240DF101007D
:10F1400007F0FEFD0AF0BCFD2949002008609DF88B
:10F15000010010F01F0006D001280FD0022826D091
:10F16000032833D106E06946284609F0DFFF04464C
:10F1700006282AD16846FFF75BFC25E09DF80500CC
:10F1800003A900F027FB050008D06A469DF80C1083
:10F1900000F0DEFA0446062802D016E0102415E03E
:10F1A0006A469DF80C1028460AF012F90CE09DF80A
:10F1B0000500010705D0694600F07EF804460628E0
:10F1C00003D168460AF054F8044624B107F0E0FD84
:10F1D00004B0204670BD0AF073FD30B107F092FD17
:10F1E0000028F5D107F097FDF2E707F091FDEFE772
:10F1F000F4000020FEB5C08814460E46A04201D29D
:10F20000054600E01546844207D2802007F020FA28
:10F21000B4FBF0F100FB114068B100200096CDE98D
:10F220000150002000F0E8FC6946802000F0EAF878
:10F23000040002D006E00120F0E705498020FFF736
:10F2400065FF0446002000F005FD2046FEBD0000DD
:10F2500078A90F0008B14021016001487047000003
:10F260002427002010B507F041FD20B104A140F291
:10F27000D13000F02FFDBDE8104006F0F5BF0000D2
:10F280002E2E5C2E2E5C2E2E5C2E2E5C2E2E5C6383
:10F290006F6D706F6E656E74735C6C6962726172B3
:10F2A0006965735C757362645C6170705F757362CD
:10F2B000642E630007F014B810B50C46010600F088
:10F2C0000F02092A08D200F009F8006820B121468F
:10F2D000BDE8104001F004BD102010BD10B50106BE
:10F2E00000F00F0408D5092C04D309A14FF4CC7009
:10F2F00000F0F0FC134808E0092C04D304A14FF4FB
:10F30000CF7000F0E7FC0F48483000EBC40010BDA0
:10F310002E2E5C2E2E5C2E2E5C2E2E5C2E2E5C63F2
:10F320006F6D706F6E656E74735C6C696272617222
:10F330006965735C757362645C6170705F7573623C
:10F34000642E63008826002007F080B810B50446BC
:10F3500000F00F00082805D2204607F0A7F8204645
:10F3600007F0F4F92046BDE8104007F0C3B80000EC
:10F3700070B50C46054607F00DF918B10548007840
:10F38000022801D0082070BD21462846BDE8704003
:10F3900007F008B9C800002010B5FFF79FFF00680C
:10F3A00010BD000070B50D460646FFF797FF0446F6
:10F3B000056015B16868006808E00EB1802E04D1C0
:10F3C00003A14FF4E17000F085FC0020606070BD87
:10F3D0002E2E5C2E2E5C2E2E5C2E2E5C2E2E5C6332
:10F3E0006F6D706F6E656E74735C6C696272617262
:10F3F0006965735C757362645C6170705F7573627C
:10F40000642E630070B50C46054607F0C3F818B1CA
:10F4100005480078022801D0082070BD2146284602
:10F42000BDE8704007F022BAC80000200178052925
:10F430000BD107490968064AC9B2121F126812F0B7
:10F44000FF0F02D1052900D1024803490968084786
:10F450008474024006A90F001827002070B58A4C5A
:10F460000546606820B989A140F2254000F032FCD1
:10F4700001F008FD062804D284A140F22C4000F0DF
:10F4800029FC2878092877D008DC092818D2DFE879
:10F4900000F07493C29CAFCBD017F30082282DD01C
:10F4A00008DC0A28EFD00F28EDD0802841D0812831
:10F4B00006D10CE0832847D084284ED085287AD006
:10F4C000BDE8704071A140F2265000F003BC7C48BA
:10F4D000FFF714FE7A48FFF745FA0D200AF0C4FF43
:10F4E000FFF752FAFFF738FDA06810B97548007AA7
:10F4F00000B1012007F050FC012088E0FFF744FA3A
:10F5000007F098FC00200AF0B9F96D48401CFFF79D
:10F5100029FA6B48401CFFF7F1FD0E200AF0A4FF0A
:10F52000207800F04FFB002844D0BDE8704005F083
:10F530001FB92078052803D0062803D0072839D121
:10F54000022064E0082062E02078032832D107F02E
:10F55000B7FC00282ED0042059E02078032805D1DC
:10F5600007F0AEFC10B104200AF088F907F082FD24
:10F5700000281FD006204AE07FE02078032801D031
:10F58000082803D14E48801CFFF768FF00200AF0CE
:10F590006BFFA46840F25F260AE02946204601F08E
:10F5A0009FFB1CB948A1304600F094FB20684468DA
:10F5B000002CF2D170BD37E0FFF7E6F9FFF7D5FC7C
:10F5C00002200AF05BF9012006E02078082809D023
:10F5D00005200AF053F903200AF046FF2846FFF7FA
:10F5E0008DFD4CE002200AF049F907F007FBF2E735
:10F5F00003200AF039FF3248C01CFFF77FFD304876
:10F60000C01CFFF7AFF92078062899D10720BDE884
:10F6100070400AF033B903200AF030F902200AF0F2
:10F6200023FF2846FFF79EF92846BDE87040FFF704
:10F6300065BDA878FFF752FE0446006820B913A103
:10F6400040F2025000F046FB606820B90FA140F282
:10F65000035000F03FFBD4E9000229469047002800
:10F66000A8D0A8780107A5D000F00F010829A1D2E1
:10F67000BDE8704007F038B808200AF0F5FE2846CB
:10F68000BDE87040FFF76EB9C80000202E2E5C2E3A
:10F690002E5C2E2E5C2E2E5C2E2E5C636F6D706F9A
:10F6A0006E656E74735C6C69627261726965735CBD
:10F6B000757362645C6170705F757362642E630061
:10F6C000F9A80F00182700202E2E5C2E2E5C2E2E5F
:10F6D0005C2E2E5C2E2E5C636F6D706F6E656E748B
:10F6E000735C6C69627261726965735C7573626484
:10F6F0005C6170705F757362642E6800FFF796BE80
:10F7000010B520B104A140F27B2000F0E3FABDE87F
:10F7100010400E48FFF78ABE2E2E5C2E2E5C2E2E39
:10F720005C2E2E5C2E2E5C636F6D706F6E656E743A
:10F73000735C6C69627261726965735C7573626433
:10F740005C6170705F757362642E6300E8A80F00DF
:10F75000114601F0C5BA000070B5044640680D4678
:10F76000C2680AB120469047207AA84204D20CA170
:10F770004FF4467000F0AEFA29462046FFF748FBEA
:10F7800005464678002408E021462846FFF7DCFAC3
:10F79000007806F05BFE641CE4B2B442F4D370BDA2
:10F7A0002E2E5C2E2E5C2E2E5C2E2E5C2E2E5C635E
:10F7B0006F6D706F6E656E74735C6C69627261728E
:10F7C0006965735C757362645C6170705F757362A8
:10F7D000642E63002DE9F04180460F480E464568CF
:10F7E00016E02F7A00240DE021462846FFF710FB93
:10F7F0000178414504D106B134702846BDE8F08156
:10F80000641CE4B2BC42EFD32846FFF769FB05460F
:10F81000002DE6D10020F1E7C800002070B50446B5
:10F82000406815460E4683681BB120469847062857
:10F8300009D1207AB04204D20E4940F2F92000F0FA
:10F8400049FA0DB1072070BD31462046FFF7E0FAB6
:10F8500005464678002408E021462846FFF774FA5A
:10F860000078FFF773FD641CE4B2B442F4D30020C7
:10F8700070BD0000A0F70E00034600205A68126910
:10F88000002A01D018461047704700002DE9F843C0
:10F89000044605F017F820B92DA140F2313000F0F0
:10F8A00019FA384807F0B0F900284DD136490870E8
:10F8B0004860886048213548FCF7E4FD334848211A
:10F8C0004830FCF7DFFD3148314D80304CB194E8D1
:10F8D0000E00103080E80E002C489030016821B1F5
:10F8E00005E005F134010EC9F3E72A490160002063
:10F8F00004F0EEFF18B1852801D0FEF7F3FE264E86
:10F9000000240DE0002703E000783146FFF74AFDB0
:10F910003946781CC7B24046FFF716FA0028F3D1E3
:10F920002146641CE4B23046FFF772FA5FEA000831
:10F93000E8D1686800906946304601F0D1F90400CA
:10F9400004D007F06DFB2046BDE8F8830020FBE7FC
:10F950002E2E5C2E2E5C2E2E5C2E2E5C2E2E5C63AC
:10F960006F6D706F6E656E74735C6C6962726172DC
:10F970006965735C757362645C6170705F757362F6
:10F98000642E6300FDF60E00C800002088260020CB
:10F99000E8A80F005DF40E00B8A90F0040B10128DF
:10F9A00008D0022809D007A140F2622000F092B9E5
:10F9B000114804E01048001D01E00F480830FFF72F
:10F9C00035BD00002E2E5C2E2E5C2E2E5C2E2E5C65
:10F9D0002E2E5C636F6D706F6E656E74735C6C69F8
:10F9E000627261726965735C757362645C61707088
:10F9F0005F757362642E63000AA90F0010B507F0EB
:10FA00006DF910B107F060F908B1082010BD044885
:10FA100004F072FF08B1FEF765FE002010BD000083
:10FA200018A90F002DE9F0410D46164901EB80079A
:10FA300057F82500017849B10020FFF70BFC57F873
:10FA4000255006460024287848B911E0801CBDE8FE
:10FA5000F0811F2C03D30CA1E62000F03BF9641CBD
:10FA6000E4B215F8010B26F8140028780028F0D12C
:10FA7000022000EB4400C0B240F4407030803046B9
:10FA8000E5E70000040100202E2E5C2E2E5C2E2EB9
:10FA90005C2E2E5C2E2E5C636F6D706F6E656E74C7
:10FAA000735C6C69627261726965735C75736264C0
:10FAB0005C6170705F757362645F737472696E67A6
:10FAC0005F646573632E6300FEB54FF08050D0F81D
:10FAD000A810D0F8A40089B241F44043009009A2D4
:10FAE000072101A8FEF7CEFA01AD0024084E02E07E
:10FAF000285D3055641C2846FCF7CFFCA042F7D89F
:10FB0000FEBD000025303458253038580000000074
:10FB1000FC00002010B507F0D7F820B909A14FF478
:10FB2000767000F0D7F814480168C1F3400121B1A4
:10FB3000BDE810401148FFF779BC016811F0010FD2
:10FB4000F2D110BD2E2E5C2E2E5C2E2E5C2E2E5C45
:10FB50002E2E5C636F6D706F6E656E74735C6C6976
:10FB6000627261726965735C757362645C61707006
:10FB70005F757362642E630038040040EDA80F00C7
:10FB8000034808B5806800906846FFF74FFC08BD41
:10FB9000E8A80F004FF0000150B106280BD2074A29
:10FBA000105C002808D0064A52F820201AB100E064
:10FBB0000020FFF737BF0020704700000AAA0F009F
:10FBC00004010020092808D2DFE800F00707050734
:10FBD000070505050500012070470020704709282A
:10FBE00008D2DFE800F00707050707070707050049
:10FBF000012070470020704710B508F0B5FD0128BE
:10FC000003D004A1432000F065F8BDE8104000F0E7
:10FC10004FB800002E2E5C2E2E5C2E2E5C2E2E5CFD
:10FC20002E2E5C636F6D706F6E656E74735C6C69A5
:10FC3000627261726965735C7574696C5C61707025
:10FC40005F7574696C5F706C6174666F726D2E6342
:10FC50000000000010B508F087FD012803D004A1C2
:10FC6000512000F037F8BDE8104000F029B800003E
:10FC70002E2E5C2E2E5C2E2E5C2E2E5C2E2E5C6389
:10FC80006F6D706F6E656E74735C6C6962726172B9
:10FC90006965735C7574696C5C6170705F757469BB
:10FCA0006C5F706C6174666F726D2E630000000093
:10FCB00072B602480168491C016070471C010020AF
:10FCC00003490868401E086000D162B67047000012
:10FCD0001C0100201CB56A46ADF80000019100210E
:10FCE00044F20200FEF7CCFC1CBD102802D31038F1
:10FCF000C0B2704740F0800070470000F8B521485E
:10FD00000146456AC06A8C6CAC2801D024B106E07B
:10FD1000486B04442D1A02E003F030F804461A48F8
:10FD20001A492346401AC708042000EB074006463C
:10FD3000174A18A1009505F088FB2A462146144869
:10FD4000FCF7B2FBD0B130462B4622461FA105F08E
:10FD500074FB00BF05F000FA0028FBD102F074FD2F
:10FD60002946204603F0ECFB040005D0012000EBFF
:10FD7000074022A105F056FB2046F8BD002430467E
:10FD800025A1F7E7C81C002078BA0F00F8B90F00CA
:10FD900000C00E00566572696679696E6720424C34
:10FDA0003A20416464723A203078253038782C202B
:10FDB0005372633A203078253038782C204C656EA9
:10FDC0003A2030782530387800000000436F707991
:10FDD000696E6720626F6F746C6F616465723A2040
:10FDE0005372633A203078253038782C204C656E79
:10FDF0003A2030782530387800000000526571755F
:10FE000065737420746F20636F707920424C206694
:10FE100061696C65640000004E6F20626F6F746CE6
:10FE20006F6164657220636F7079206E65656465CB
:10FE3000642C20626F6F746C6F61646572207570E2
:10FE40006461746520636F6D706C6574652E00006D
:10FE500013B90378012B01D004F05EB8012070477C
:10FE60000022C32100F5187000F0B2BF2DE9F04365
:10FE7000A3B00446DDE92A9620200F46219098463B
:10FE800015467C2102A8FCF7FDFA41212046FCF72B
:10FE9000F9FAB7F8940005EB051107EB8101A842C8
:10FEA00001D991F896602670320033D0012A0DD026
:10FEB0001B481C4D0123401BC00803EB0045022AD0
:10FEC0000CD0032A20D0284617A117E0002249466B
:10FED000404600F07DFFC4F801001BE021A9601C32
:10FEE000CDE900014B464246184902A802F002FE45
:10FEF00080B105F0FFFC0246284615A105F096FAF0
:10FF0000002023B0BDE8F083B1F89820601C9A313E
:10FF1000FCF790FA4A464146204603F0FDFFF0E721
:10FF200018BA0F00F8B90F00496E76616C69642049
:10FF3000626F6F742076616C69646174696F6E20A2
:10FF4000747970653A20256400000000F4A50F0064
:10FF50006E72665F63727970746F5F686173685FF9
:10FF600063616C63756C6174652829206661696CD6
:10FF700065642077697468206572726F72202573DA
:10FF80000000000010B504460A480B49401AC0089A
:10FF9000042101EB004009A105F044FA4FF00000F4
:10FFA00034B10C490870BDE810400B4803F03CBD6B
:10FFB00001F0E2F978BA0F00F8B90F0052657365E5
:10FFC0007474696E6720626F6F746C6F61646572C0
:10FFD0002E0000000800002079130F002DE9FC41DD
:10FFE0000646C0074FF000050ED0104F0024012236
:10FFF000385D009500231146019504F059FF641CFB
:02000004000FEB
:10000000042CF4D300F064F8B0070DD5074E00249B
:10001000361D0022305D032300951146019504F042
:1000200047FF641C042CF4D3BDE8FC81A6A50F0097
:1000300010B50446042803D305A14720FFF74AFE64
:100040000E480121005DBDE8104004F0A7BF00008C
:100050002E2E5C2E2E5C2E2E5C2E2E5C2E2E5C63A5
:100060006F6D706F6E656E74735C626F61726473D6
:100070005C626F617264732E63000000A6A50F00BE
:1000800010B50446042803D305A14120FFF722FE42
:100090000E480021005DBDE8104004F07FBF000065
:1000A0002E2E5C2E2E5C2E2E5C2E2E5C2E2E5C6355
:1000B0006F6D706F6E656E74735C626F6172647386
:1000C0005C626F617264732E63000000A6A50F006E
:1000D00010B500242046FFF7ABFF641C042CF9D3B5
:1000E00010BD00002DE9F0470546861C90460F46DE
:1000F0004FF001090020FFF77FFD1B4C206838609E
:10010000D4E90001401AA168081A44F21C016718DA
:100110000EE00121384601F043FF01F0F7FD0146F2
:10012000384601F03DFFD4E90001401AA168081AE1
:10013000401C8642EDD8B8F1000F03D0052065F3CE
:10014000891002E0062065F39F50A26821681140E3
:1001500004EB8101C8602068304420600020FFF774
:1001600079FD4846BDE8F0872029002010B5436896
:100170009C18446021B905E013F8010B01F8010B4C
:10018000521EF9D2012010BD70B50D4604460A2951
:1001900002D10D21FFF7F8FFA0682268411CA16081
:1001A0001554D4E90101814204D32046BDE87040D2
:1001B00004F0F2BB70BD0000034803C8814201D1C6
:1001C00001207047002070472029002010B5054805
:1001D000012101F0FBFEBFF35F8F08B1002010BDCD
:1001E000012010BD4800002010B5064C20680128F1
:1001F00003D005A19320FFF76DFDBFF35F8F0020B3
:10020000206010BD480000202E2E5C2E2E5C2E2E6D
:100210005C2E2E5C2E2E5C636F6D706F6E656E743F
:10022000735C6C69627261726965735C6D7574652B
:10023000785C6E72665F6D74782E680004490020E9
:10024000086004494FF48060C1F8800170470000E5
:1002500000A5025004E000E00349012008600349C2
:100260008002C1F80001704700A5025004E000E0E0
:1002700070B500F10805106814460E46202802D219
:1002800048F2145070BDFFF7A1FF90B1FFF7E4FFF3
:1002900031462846FDF752FA0546FFF7CFFFFFF734
:1002A000A3FF284601F030FB0028EBD1202121607C
:1002B00070BD48F2045070BD10B50830FDF76EFAFD
:1002C000BDE8104001F020BB2DE9F04700F108091E
:1002D0000E461446FFF77AFFB8B1FFF7BDFF4FF4A3
:1002E00080584546AC4200D825462A4631460E483D
:1002F000FCF7A0F82A460C494846FDF769FA0700C2
:10030000A4EB05042E4404D005E048F20450BDE8F7
:10031000F087002CE5D1FFF791FFFFF765FF384626
:10032000BDE8F04701F0F0BAC805002070B50B48F1
:1003300000240460BFF35F8F094D01202860FDF7A2
:1003400017FB01002C604FF0030004D0052901D1F8
:1003500048F2035070BD002070BD0000480000202E
:1003600000A50250014900200860704700A5025016
:100370004360CA699A420DD38A6902608869184449
:100380008861086F18440867C869C01AC86100D03E
:100390000120704701F12802026000208B6770473E
:1003A00010B5040003D106495F20FFF793FC2068D5
:1003B00018B903496020FFF78DFC20680C3010BD90
:1003C00050B20F0070B50C46060004D1224940F22D
:1003D000DD20FFF77FFC24B91F4940F2DE20FFF744
:1003E00079FC207800250F2833D2DFE800F03308AD
:1003F0003333320C11323208323333333300304668
:1004000000F09FFB26E02146304608F07BFF0FE01E
:10041000304600F0D3FC0146A0780025814219D077
:100420000106E1784FF0030004D531B901210CE059
:1004300005460FE021B101290CD00329F8D109E0CC
:10044000304600F08FFB05460021304609F0FEFFE4
:1004500000E00625284670BD50B20F002DE9FF5F71
:1004600005460198DFF8F4931F46017A89F80010D9
:100470001646019800F044FB804625B9F84940F241
:100480000F30FFF727FC29684FF0000A40F2453291
:100490005446A1F245304FF0020B914276D04ADC2F
:1004A00040F22732A1F22730914270D027DC40F28F
:1004B0001730A1F2173281426AD013DC4FF4457233
:1004C00091426ED007DCE9B3A1F54071123971D0C9
:1004D000012960D17FE0A1F54071153976D001295D
:1004E00059D19EE0092A72D004DC012A70D0022A78
:1004F00051D1BAE00A2A6CD00F2A4CD1E0E00E2884
:1005000068D00EDC072865D006DC01286FD00528EE
:100510006ED006283FD119E10C286AD00D283AD1B7
:100520003BE11538092836D2DFE800F0F8353535DB
:1005300035F7F6F5F400132872D00FDCA0F10300B4
:10054000102800E02FE026D2DFE800F0F4F3F2F10B
:10055000F02525EFEEEDEC2525EBEAE937280CD068
:100560000CDC292871D004DC14286FD0282812D183
:100570002AE22D286BD032280DD155E2442867D0CD
:1005800007DC3E2870D03F2805D174E25AE1A2E092
:100590004FE04928F3D00020C5F800A004B0BDE822
:1005A000F09F27E006E008212971002F02D840F2D1
:1005B000123009E00EB1297931700B210124297123
:1005C000012F08D840F2133028600EE01DE05AE0F9
:1005D0003FE063E0C6E00EB12979315598F8141078
:1005E000641C2971BC4205D32A600120D6E77FE054
:1005F000A1E0C7E00EB129793155641C85F804B03B
:10060000BC4202D340F21530DEE70EB129793155F4
:10061000641C85F804B0BC4203D340F21630D3E723
:10062000A7E10EB129793155641C85F804B0BC42AC
:10063000CAD20EB12879305598F81900641C287177
:10064000BC4206D34FF44670BEE7C8E19DE1D9E154
:1006500025E20EB128793055641C85F804A0BC420F
:1006600003D340F21930AFE7FAE10EB128793055E3
:1006700089F801A0641C36E209202871BC4202D32B
:100680004FF44870A0E70EB1287930550420641C5F
:100690002871BC4202D340F2213095E70EB128798F
:1006A000305599F80110641C0198FEF7E5FBC9F874
:1006B000040000782871BC4202D340F2263083E760
:1006C0000EB128793055641C85F804A0BC4202D3D1
:1006D00040F2273078E70EB128793055D9F8040078
:1006E000641CBC424078287102D34FF44A706BE717
:1006F0000EB128793055D9F8040098F81410641C0C
:100700000078814233D185F804B0BC4213D34FF452
:100710004B7059E78BE07FE073E067E054E01CE149
:1007200010E104E1F8E0ECE0E0E0D4E0C8E0BAE099
:10073000AEE0A2E096E00EB128793055641C85F851
:1007400004B0BC4202D340F22D303DE70EB128790F
:10075000305598F81900641C2871BC4202D340F24D
:100760002E3031E70EB128793055641C25E098F819
:10077000161081421CD10A202871BC4202D340F2DB
:10078000333021E70EB128793055641C85F804A078
:10079000BC4202D34FF44D7016E70EB128793055A4
:1007A000641C85F804A0BC42DCD340F235300BE772
:1007B0002B4940F23930FFF78DFA85F804A0BC428E
:1007C00002D34FF44F70FFE60EB128793055D9F8B7
:1007D000040098F81410641C007881426FD1052041
:1007E0002871BC4202D340F24130EDE60EB12879C7
:1007F00030552420641C2871BC4202D340F24230A0
:10080000E2E60EB128793055641C85F804A0BC429C
:1008100002D340F24330D7E60EB12879305510208C
:10082000641C2871BC4202D34FF45170CCE60EB167
:10083000287930550120641C2871BC4202D340F253
:100840004530C1E60EB1287930550520641C287169
:10085000BC4207D34FF45270B6E60000E00000201F
:1008600050B20F000EB1287930552420641C287135
:10087000BC4202D340F24930A6E60EB12879305589
:100880000120641C2871BC4202D340F24A309BE62E
:100890000EB1287930550320641C2871BC4202D364
:1008A00040F24B3090E60EB12879305598F816009A
:1008B000641C2871BC4203D34FF4537084E669E092
:1008C0000EB1287930550420641C2871BC4202D333
:1008D00040F24F3078E60EB1287930552420641C60
:1008E0002871BC4202D34FF454706DE60EB12879E2
:1008F0003055641C85F804B0BC4202D340F251303C
:1009000062E60EB128793055641C85F804B0BC420B
:1009100002D340F2523057E60EB128793055052007
:10092000641C2871BC4202D340F255304CE60EB133
:10093000287930552420641C2871BC4202D340F22F
:10094000563041E60EB1287930550620641C2871D6
:10095000BC4202D340F2573036E60EB1287930550A
:1009600098F81400641C2871BC4202D34FF45670EE
:100970002AE60EB12879305598F81600641C2871C3
:10098000BC4202D340F259301EE60EB128793055F0
:10099000641C08E098F81610814204D0574940F2D0
:1009A0006230FFF797F9D9F804104846497889F87A
:1009B0000210514689F803A08CE007202871BC4240
:1009C00002D340F26D30FFE50EB128793055052095
:1009D000641C2871BC4202D340F26E30F4E50EB1C3
:1009E0002879305599F80310641CD9F80400FEF7F3
:1009F000DDF9C9F8080000782871BC4202D340F242
:100A00007230E1E50EB128793055D9F8040098F834
:100A10001410641C007881420BD103202871BC4261
:100A200002D340F27730CFE50EB128793055641CFF
:100A30000FE098F81610814206D185F804B0BC4248
:100A4000F2D34FF45F70BFE52C494FF46070FFF7AD
:100A500041F940202871BC4202D340F28330B3E513
:100A60000EB128793055641C85F804A0BC4202D32D
:100A70004FF46170A8E50EB128793055D9F804001B
:100A800098F81410641C007881420DD1D8F8200029
:100A9000BC420078287102D340F2893094E50EB14F
:100AA00028793055641C0FE098F81610814206D161
:100AB00085F804A0BC42F2D340F28E3084E50F49A1
:100AC00040F29230FFF706F999F803104846491CA6
:100AD00089F803108278C9B29142FFF46EAF417871
:100AE000491C89F8011099F8011099F80000814219
:100AF000FFF4C2AD40F2993066E5000050B20F003D
:100B000010B5040003D103495220FFF7E3F8204653
:100B100010BD000050B20F0010B508B1032010BD89
:100B20000846FFF73DFC0178202901D0062010BDC2
:100B3000D0F80210C160C1880182017A817400205E
:100B400010BD10B5FFF7DCFFFFF72AFC0021818202
:100B500081610162C16601674167816700F1280117
:100B6000816610BD2DE9FC478146FFF7C9FFFFF7FD
:100B700017FC0446484600F0A6F907462F48002611
:100B80008068CDE90004E069B0B1D4F878804546CA
:100B9000404500D205462A4604F12801A069FBF72A
:100BA00049FC206F2844C4E91C60A8EB0500E066FE
:100BB00060192830A06627E0206F60672667E66628
:100BC000216A304621B1626AA161C4E907202CE0A4
:100BD000A06130E004F11802616A82E84300E26E2D
:100BE0001AB38A4215D3A36E0A461946FBF722FCB4
:100BF000E16EE069091AE166A16E0144A1666067D1
:100C00000021484609F022FC206A0028E2D1A661B2
:100C100011E0A16EFBF70EFCE06E2067E169091A96
:100C2000E161A1690818A06105D069463846FEF760
:100C30009FFBBDE8FC870020FBE700003CA90F00FC
:100C40004360CA699A4204D38A6902600B67CB6128
:100C500003E001F1280202608B670020704700006A
:100C600010B599B102291ED101220F490F48FDF795
:100C7000F7FE02460E480F49BDE81040401AC00872
:100C8000022101EB00400CA104F0D0BB0649012277
:100C9000A1F1590006F010FF012203490348FDF7B6
:100CA000DFFE0028F2D010BDB9920020BCAB0F00CF
:100CB00088BA0F00F8B90F00436F756C64206E6F2F
:100CC0007420726561642066726F6D204344432E08
:100CD000204572726F723A20307825782E0000001D
:100CE00070B50D46040004D10DA140F20F10FEF7BF
:100CF000F1FF606820B90AA14FF48870FEF7EAFF9F
:100D00006068006820B906A140F21110FEF7E2FF0A
:100D10006068294602682046BDE870401047000020
:100D20002E2E5C2E2E5C2E2E5C2E2E5C2E2E5C63C8
:100D30006F6D706F6E656E74735C6C6962726172F8
:100D40006965735C757362645C6170705F75736212
:100D5000642E630070B5084C050009D0103421687A
:100D6000002907D008682060496828468847F6E7C8
:100D70000834F4E770BD00003C240020054A01213E
:100D800020B1012805D19170FFF7E4BF5170002018
:100D9000FAE770473C24002010B5040003D1054950
:100DA000F020FEF797FF0448C16B6160006CA06003
:100DB00010BD000090AE0F00C81C002010B500212F
:100DC000FEF75AF80021FDF7F1FF007810BD000092
:100DD000F0B54FF0FF3622B11268D24300230A4D1E
:100DE0000DE03246FAE7C45C62400824D70700D021
:100DF00037462F4087EA5202641EF7D15B1C8B42B4
:100E0000F1D3D043F0BD00002083B8ED10B5044607
:100E10000068401C07D0204607F0ECFF21688142A3
:100E200001D1012010BD002010BD000010B5104CF4
:100E300090B06078002818D101F0C0FE18B10D49BB
:100E4000DB20FEF747FF20220B49684601F0D6FE63
:100E500040236A4609490A4801F0F8FD18B10549DE
:100E6000E520FEF737FF0120607010B010BD0000D4
:100E70006C000020BCB10F0054A50F0074230020AB
:100E8000E8A50F00EFF30580C005C00D10D01038A5
:100E900040B2002806DA00F00F0000F1E02090F8E0
:100EA000140D03E000F1E02090F8000440097047C1
:100EB0000F20704710B50121FDF7DEFF0021FDF77F
:100EC00075FF007810BD10B50121FDF7D5FF012198
:100ED000FDF76CFF007810BDF0B5146906468DB0C3
:100EE00020681546271DE0B1022920D00A20009075
:100EF0006B4609AA304607F04BFC00280FD009A921
:100F000001A8009A07F0B8F901AE96E80F0005AE07
:100F100086E80F00236869683A4605A898470DB02F
:100F2000F0BD0DB03046BDE8F04007F019BA694693
:100F3000304607F0ABF90028F1D0236869683A46DB
:100F4000684698470028EAD002980028F5D1019811
:100F500070600120E3E753689B7813F0C00303D06F
:100F6000402B03D00020704700F002B8FFF7B4BF59
:100F70002DE9FF410B465168064614468878334DEB
:100F800000F00F0210F0300055F8225006D0102863
:100F900006D0202808D0302856D13EE022694DE006
:100FA00061690120087047E0022B28D1042A26D865
:100FB0004FF0010869463046676907F067F9002875
:100FC0001AD009E00B89226903FB00226846A84772
:100FD00070B13888401C3880029820B16168388828
:100FE0004A899042EED301987060029860BB02E09B
:100FF0004FF00008F7E7404604B0BDE8F081D4E9BF
:1010000004300F890288498907FB02338A421BD2C8
:10101000521C02801A46616810E008886169072A3C
:10102000088009D1606801892069FBF72BFA6068A4
:101030002169C06807F045F92269616804B030464B
:10104000AC46BDE8F04160470020D5E7ECAB0F00AF
:1010500038B51E4901200A68D20301D500040CE00E
:101060001B490A681523D2B2B3EBD20F07D10A6825
:10107000D20704D0086800F0560008600020FDF791
:1010800051FB1449144A891AC908042202EB01448D
:10109000B0B10B200090684603F052FFD0F8100565
:1010A0000099C84010F0010F0DD004F0EDFB10F0D6
:1010B000B10004D0204609A104F0B4F9012038BDE4
:1010C00020460FA1F8E7204616A1F5E700040040EE
:1010D0002005004078BA0F00F8B90F0044465520AB
:1010E0006D6F6465207265717565737465642076D3
:1010F00069612047505245475245542E0000000078
:10110000444655206D6F6465206265636175736543
:1011100020617070206973206E6F742076616C6935
:10112000642E0000444655206D6F64652072657121
:101130007565737465642076696120627574746F77
:101140006E2E0000FEB519490446086808B1401E1D
:1011500008601748174AD4E90153801AC0080422CE
:1011600002EB004022789DB10E6821690296CDE91C
:1011700000312B46012A16D00FA211A104F078F9F4
:101180006169002911D0E06803B0BDE8F04008476C
:1011900009680091012A04D007A218A104F055F9AA
:1011A000EEE720A2F9E71FA2E7E7FEBD500000200E
:1011B00000BA0F00F8B90F00657261736500000096
:1011C000466C617368202573206661696C656420D4
:1011D0002830782578293A20616464723D25702C86
:1011E000206C656E3D307825782062797465732CAB
:1011F0002070656E64696E6720256400466C6173BB
:101200006820257320737563636573733A20616486
:1012100064723D25702C2070656E64696E672025B0
:1012200064000000777269746500000010B508283A
:101230001BD2DFE800F004121A1A1A041A04012063
:10124000FEF7CCFE0020FEF71BFF0120FEF718FF83
:10125000BDE810400220FEF7EBBE0120FEF7E8FEDD
:10126000BDE810400220FEF70BBF10BD10B50446CC
:10127000032806D0042C04D0062C08D0072C09D152
:1012800005E009494FF4701001F0CCF802E00120AC
:10129000FEF778FE05484168002903D02046BDE8E6
:1012A0001040084710BD0000C11A0F0008000020C0
:1012B00010B50446062802D1002002F06FFD044854
:1012C0000168002903D02046BDE81040084710BD42
:1012D0004C00002010B5FF224FF400710648FBF7C8
:1012E000CAF8054820212438FBF7CCF80249002031
:1012F0005C39086310BD0000241D002070B54278E1
:1013000005460C46012A09D00F481049401AC0086A
:10131000022101EB00400EA104F088F8287808288B
:101320000BD16088401E81B26180208800280AD0DD
:10133000002908D160800320287029462046BDE896
:10134000704007F057BA70BD80BA0F00F8B90F00AF
:10135000444655207265717565737420636F6D70B6
:101360006C65746564207769746820726573756C48
:10137000743A20307825780004F016F903F0ECFE7A
:101380000028FBD10A4E64254FF47A47741C384676
:10139000A0476D1EFAD1BFF34F8F06480168064A79
:1013A00001F4E06111430160BFF34F8F00BFFDE71F
:1013B000B0A50F000CED00E00400FA0510B5002107
:1013C000024800F003FE80F3100010BD3C690020CD
:1013D00010B50446010600F00F00092804D30649A1
:1013E00040F2BE20FEF776FC6FEA0460C10F204693
:1013F00061F31F1010BD00007CA00F0070B5054602
:10140000000605F00F0402D5092C09D301E0092CD0
:1014100008D307A140F2AB20FEF75CFC280601D5FB
:10142000104801E00F48903800EB041070BD000038
:101430002E2E5C2E2E5C2E2E5C2E2E5C2E2E5C6DA7
:101440006F64756C65735C6E7266785C64726976E5
:101450006572735C7372635C6E7266785F757362DB
:10146000642E6300E024002010B50446010600F05D
:101470000F00092804D3034940F28E20FEF72AFC0E
:10148000204610BD7CA00F002DE9FC4180461F4680
:1014900015460E4600240D4800F07FFD38B111209E
:1014A000BDE8FC8106EB043004F0A6F9641CAC42F4
:1014B000F8D1064800F068FDCDE900573346002218
:1014C0000221404600F0AAF90020E9E720010020AF
:1014D00010B508F0ADFD8020FFF790FF817B01245F
:1014E000032902D00068002809D18020FFF770FF8F
:1014F0008440E143BDE81040014804F0E5BB10BD65
:10150000B0000020812004F05DBA822004F05ABAB5
:10151000832004F057BA842004F054BA852004F0E4
:1015200051BA862004F04EBA872004F04BBA8820C6
:1015300004F094BA38B508F07BFD0020FFF75EFF99
:10154000817B0124032905D0006868B1BDE83840DB
:1015500005F0E1BB0020FFF73BFF8440E143BDE81D
:1015600038400A4804F0B0BB0020FFF731FF844048
:10157000E143064804F0A8FB05480449C0680C395B
:10158000009049686846884738BD0000B0000020D8
:1015900018A80F00012004F0CFBA022004F0CCBA42
:1015A000032004F0C9BA042004F0C6BA052004F0F0
:1015B000C3BA062004F0C0BA072004F0BDBA000088
:1015C00038B5082408F034FD2046FFF717FF817B6B
:1015D000032915D00068002812D12046FFF7F8FE35
:1015E00001218140C943074804F06EFB06480549C4
:1015F000406900900C398DF8024049686846884778
:1016000038BD0000B000002018A80F0070B51348C6
:1016100004680460BFF36F8FBFF34F8F05F0BFF90D
:1016200038B10F49086920F0011200F0011014438D
:10163000086101266CB194FAA4F0B0FA80F528464E
:10164000FEF753FB06FA05F18C43294608F0A4FE89
:10165000F0E7BDE8704008F02BBD00006C7402405C
:10166000A400002010B5054CA078FFF7B1FE01469C
:10167000A078BDE8104008F08FBE0000A400002054
:10168000F8B51A4800681A4DC6B2A878FFF7A0FE50
:10169000012404FA00F12889EA68C04380B21043AB
:1016A000014202D0A87808F0D1FD06F08000A870B1
:1016B0000020FFF78DFE04FA00F68020FFF788FE79
:1016C00004FA00F006430A48F1430C3004F0FCFA37
:1016D0008020FFF77DFE8440A86804430548AC6085
:1016E000006A0090696868468847F8BD80740240C7
:1016F000A400002018A80F0038B5002000900E4864
:101700000068ADF802008820FFF762FE012505FAA7
:1017100000F4082004F0E4F9401C04D00820FFF78E
:1017200057FE85402C4305498868204388604968F6
:101730006846884738BD000020750240A40000209C
:1017400070470000F8B51C480568284604F096FA72
:10175000BFF36F8FBFF34F8F184E194CE80506D5B6
:1017600001206070706A0090616868468847A8052B
:101770004FF0000705D56770B06A00906168684651
:101780008847680516D56078002813D004F080FAE1
:1017900020B10CA140F2EB40FEF79CFA67701649AD
:1017A00001200860582004F07BFAF06A009061681C
:1017B00068468847F8BD00000074024018A80F0072
:1017C000A40000202E2E5C2E2E5C2E2E5C2E2E5C75
:1017D0002E2E5C6D6F64756C65735C6E7266785CE2
:1017E000647269766572735C7372635C6E7266783C
:1017F0005F757362642E630008750240054908B581
:101800000020487088700448406800904968684625
:10181000884708BDA400002018A80F002DE9F04358
:1018200087B00446DDE90E8980681D4616460F46DE
:1018300000280BD018216846FAF724FE02A88DF87C
:10184000007080E86003A1686846884707B0BDE87B
:10185000F0830B2803D30B38C0B200F009B87047EF
:101860000249002208780A707047000054000020E6
:10187000014908700B2070475400002001490120E5
:101880000870704708000020014901200870704767
:101890004400002070B515460E46040004D10749E7
:1018A00040F2BA20FEF716FA2A46314604F17200D9
:1018B000BDE87040012302F081BB0000BCB10F0005
:1018C00010B5040003D10E49DB20FEF703FA20789F
:1018D00018B90B49DC20FEF7FDF994F855000949C9
:1018E00038B1012805D06068C968884205D901204F
:1018F00010BD606889688842F9D24FF0000010BDC1
:1019000004B20F00C81C002010B50F4C48F2035160
:10191000031B48F21652A04211D007DC00280AD05F
:101920000A4BC01808D0012804D10BE00A2B01D0C3
:101930000D2B07D0104610BD48F2015010BD48F2E3
:10194000025010BD084610BD0202F00000FE0FFF5D
:101950002DE9FC5F16460746394A3A481D46101ADB
:1019600004224FEAD00902EB09408B468246B94275
:1019700005D135A103F056FD0020BDE8FC9F04D23F
:1019800035494FF04F00FEF7A5F91DB932495020F7
:10199000FEF7A0F9380503D02F495120FEF79AF938
:1019A000ABEB0700040B03D12B495420FEF792F94F
:1019B0000020009006F6FF704FEA103800F058FF44
:1019C000A54239D22C4637E0A04503D83546CDF89C
:1019D000048001E02503019400223846019901F0BA
:1019E0005BFC0028C9D150463B465A461BA10095D6
:1019F00003F02BFD681E00F003002A1A002359464D
:101A00003846D21C01F0E0FC0028B6D101991C48F0
:101A1000A8EB0108761B016B2F4429440163AB44FA
:101A2000002002F063F9009030B1012101EB094080
:101A300014A103F0F7FC01E0002EC5D100989CE74B
:101A400078BA0F00F8B90F004E6F20636F707920DD
:101A50006E65656465640000E4AC0F00436F7079E7
:101A6000696E67203078257820746F20307825786B
:101A70002C2073697A653A203078257800000000C0
:101A8000C81C00204661696C656420746F20777201
:101A900069746520696D61676520636F7079696E2F
:101AA000672070726F677265737320746F2073653F
:101AB0007474696E677320706167652E00000000A2
